:03000000020800F3
:0C080000787FE4F6D8FD758108020847F7
:03091400010800D7
:10088C00EF24FB601314601914601F24037023E51C
:10089C00A0541F4480F5A022E5A0541F44A0F5A04D
:1008AC0022E5A0541F44C0F5A022E5A0541F44E04B
:0308BC00F5A02282
:0B08BF007F007EE11208CA7F007EE18E
:0B08CA00EF1FAC0670011E4C70F62200
:1008D5007F0412088CC2801208BFD2801208C67F1E
:0608E500007EE10208CADA
:07090900D288D2A8D2AF2270
:03000300020910DF
:040910007508013233
:1008EB00E508B4010AC2871208BF1208BFD287E419
:0308FB00F50822DB
:0B08FE001209091208D51208EB80F85F
:10080C000208FEE493A3F8E493A34003F68001F2FC
:10081C0008DFF48029E493A3F85407240CC8C333ED
:10082C00C4540F4420C8834004F456800146F6DFBC
:10083C00E4800B0102040810204080900914E47E2F
:10084C00019360BCA3FF543F30E509541FFEE493B1
:10085C00A360010ECF54C025E060A840B8E493A378
:10086C00FAE493A3F8E493A3C8C582C8CAC583CAA3
:10087C00F0A3C8C582C8CAC583CADFE9DEE780BE5B
:0109170000DF
:00000001FF
