:03000000020800F3
:0C080000787FE4F6D8FD758123020847DC
:1009E300C0F9A4B0999282F880908880C6C0868EA0
:0409F300BF7F3FFF84
:1009B800081C0002020000000000011A00011B00D0
:0609C800011900011800F6
:0B0A07000000007F0B7EBEDEFEDFFC67
:010A120022C1
:1008F200EF603224FB601314601914601F2403702C
:1009020027E5A0541F4480F5A022E5A0541F44A06F
:10091200F5A022E5A0541F44C0F5A022E5A0541F73
:0909220044E0F5A02253A01F22BD
:10095A00AE077F071208F27580FF1F1208F2AF0573
:10096A007401A807088002C333D8FCF580E4FF129B
:0A097A0008F27F071208F28E8022B7
:1009A0008F1C8D1D8B1E850F1F85112085132185A2
:0809B0001522851723020984BA
:10098400E4FC741C2CF8E69009E393FFAD0412090F
:0B0994005A120A070CBC08EABC08005D
:01099F002235
:1009CF00AB07AA06EB1BAE0270011A4E60051209A7
:0409DF008480F122FD
:1009F700758901758C3C758AAFD2A9D28CD2AF228A
:03000B0002092BBC
:10092B00C0E0C0D0758C3C758AAF051AE51AB414BB
:10093B0005051B751A00E51BB43C050519751B0055
:0F094B00E519B43C050518751900D0D0D0E0327D
:10088C0075083C7F041208F27580FF1209F7E51811
:10089C0075F00A84FFE51875F00A84E5F0FD7C001C
:1008AC00E51975F00A84750E00F50FE51975F00A57
:1008BC0084E5F0751000F511751200751310E51B29
:1008CC0075F00A84751400F515E51B75F00A84E5BE
:1008DC00F0751600F5177B107A001209A07F0A7EBE
:0608EC00001209CF80A8F4
:10080C0002088CE493A3F8E493A34003F68001F26E
:10081C0008DFF48029E493A3F85407240CC8C333ED
:10082C00C4540F4420C8834004F456800146F6DFBC
:10083C00E4800B01020408102040809009B8E47E8B
:10084C00019360BCA3FF543F30E509541FFEE493B1
:10085C00A360010ECF54C025E060A840B8E493A378
:10086C00FAE493A3F8E493A3C8C582C8CAC583CAA3
:10087C00F0A3C8C582C8CAC583CADFE9DEE780BE5B
:0109CE000028
:00000001FF
