:0300000002089162
:0C089100787FE4F6D8FD75810702089D11
:0F088200E5A0541F44A0F5A0E4F58053A01F2269
:0D086000F5807F607EEA12086D7F607EEA01
:10086D00EF1FAC0670011E4C70F6EF1FAC06700149
:05087D001E4C70F62284
:10080000C2A5C2A6D2A7E4FBFAE4F5801208697576
:1008100080FF1208690BBB00010AEB64034A70E910
:100820007A007B03AF0374FFA807088002C333D8A4
:10083000FC1208600BBB00010AEB64094A70E57A00
:10084000007B01AF0374FFA807088002C333D8FC04
:0F085000F41208600BBB00010AEB64094A70E464
:01085F002276
:08089D0012088212080080FB22
:00000001FF
