:0300000002000EED
:0C000E00787FE4F6D8FD758124020055CF
:03022200011F00B9
:1001080012029A750D00750E04750F0075100575AD
:10011800110075120675130075140775150075160C
:10012800087B037A00E4FDFCFF1202701201948040
:01013800D2F4
:10009A00EF603224FB601314601914601F2403708C
:1000AA0027E5A0541F4480F5A022E5A0541F44A0D0
:1000BA00F5A022E5A0541F44C0F5A022E5A0541FD4
:0900CA0044E0F5A02253A01F221E
:0B02AA000000007F0B7EBEDEFEDFFCCC
:0102B5002226
:10028600C0F9A4B0999282F880908880C6C0868E04
:04029600BF7F3FFFE8
:0A02250008170000000000000000B0
:1001E3008F098D0A7F0612009AAF097401A80708C8
:1001F3008002C333D8FCF5807F0712009A850A80FA
:0102030022D8
:100270008F178D188B19850E1A85101B85121C85FA
:06028000141D85161E226C
:10019400E4F50874172508F8E690028693FDAF0885
:1001A4001201E31202AA0508E508C3940840E4E535
:0701B40008B40803E4F5089C
:0101BB002221
:1001680020B31512019420B307E4F524F522F521F4
:1001780020B30512019480F820B21012019420B225
:0C01880002B28C20B20512019480F82213
:0C022F0001230001240001220001210035
:10029A00758901758D3C758BAFD2A9D28CD2AF22EC
:03000B00020139B6
:10013900C0E0C0D0758D3C758BAF0523E523B414A1
:10014900050524752300E524B43C05052275240022
:0F015900E522B43C050521752200D0D0D0E0325C
:04023C007F057E00BC
:10024000EF1FAA0670011E4A600BE4FDEDD3940C6B
:0502500050EE0D80F7E7
:010255002286
:02020400A90748
:10020600E4FBC294E913929412023CD294E9C3131C
:0C021600F90BBB08ED7F057E00020240E2
:10025600E4FBC294ECC313FCD294309403430480B1
:0902660012023C0BBB08EBAF04D3
:01026F00226C
:1001BC00C200D2947F0C7E00120240C2947F507E0B
:1001CC0000120240D2947F0A7E00120240A2949246
:0601DC000012023CA2002B
:0101E20022FA
:1000D3001201BC7FCC1202047F441202047F907E83
:1000E300011202401201BC7FCC1202047FBE120235
:1000F30004120256A907120256EFC454F0FFE9C4D2
:04010300540F42074C
:0101070022D5
:10001A00020108E493A3F8E493A34003F68001F2F3
:10002A0008DFF48029E493A3F85407240CC8C333E7
:10003A00C4540F4420C8834004F456800146F6DFB6
:10004A00E4800B0102040810204080900222E47E22
:10005A00019360BCA3FF543F30E509541FFEE493AB
:10006A00A360010ECF54C025E060A840B8E493A372
:10007A00FAE493A3F8E493A3C8C582C8CAC583CA9D
:10008A00F0A3C8C582C8CAC583CADFE9DEE780BE55
:01023B0000C2
:00000001FF
