:03000000020426D1
:0C042600787FE4F6D8FD75815A02046D61
:0305B300256400BC
:0305AF000109003F
:0705A800AE071FEE70FA22FE
:1000030020B0127F641205A820B00A050930B0FDA4
:06001300AF0912001922E2
:10059200758920758DFD758BFDD28E759850E4F5A9
:0605A2008ED2ACD2AF22A4
:03002300020501D2
:10050100C0E0C0F0C083C082C0D075D000C000C0C0
:1005110001C002C003C004C005C006C00730980A6C
:10052100C298859908AF08120019D007D006D005E6
:10053100D004D003D002D001D000D0D0D082D0835B
:05054100D0F0D0E03213
:080019008F993099FDC2992274
:10056D008B478A488949AB47AA48A949120382603B
:10057D00130549E5497002054814F9120382FF126B
:05058D00001980E222CC
:1004B200E4F522F523F582F5831205920523E5235F
:1004C20070020522754AFF754B05754CB385224DA6
:1004D200F54E7B007A0079241200827B007A007943
:1004E2002412056DE4F583F582AF82AE83E4FCFD50
:0F04F2007B607AEAF9F8D312039B40C0A380EA3B
:100432000204B2E493A3F8E493A34003F68001F22A
:1004420008DFF48029E493A3F85407240CC8C333CB
:10045200C4540F4420C8834004F456800146F6DF9A
:10046200E4800B01020408102040809005AFE47E76
:10047200019360BCA3FF543F30E509541FFEE4938F
:10048200A360010ECF54C025E060A840B8E493A356
:10049200FAE493A3F8E493A3C8C582C8CAC583CA81
:1004A200F0A3C8C582C8CAC583CADFE9DEE780BE39
:0105B2000048
:10038200BB010689828A83E0225002E722BBFE0279
:09039200E32289828A83E49322AC
:10039B00EB9FF5F0EA9E42F0E99D42F0EC6480C8D9
:0603AB0064809845F02279
:10002600E556244AF8E60556227847300702784A0C
:10003600E475F0011203F00203822000EB7F2ED25A
:10004600008018EF540F2490D43440D4FF30040BB2
:10005600EF24BFB41A0050032461FFE55760021570
:1000660057055AE55A7002055930070D7847E47569
:10007600F0011203F0EF0203DE0205467403D20715
:100086008003E4C207F5568B478A488949E4F55749
:10009600F559F55AE55760077F2012006180F5751E
:1000A60058FFC201C200C202C203C205C206C2088C
:1000B60012002FFF700D3007057F00120072AF5A35
:1000C600AE5922B4255FC2D5C20412002FFF24D038
:1000D600B40A00501A75F00A785730D50508B6FFED
:1000E6000106C6A426F620D5047002D20380D924C0
:1000F600CFB41A00EF5004C2E5D204020272D20154
:1001060080C6D20080C0D20280BCD2D580BAD205C9
:1001160080B47F201200612002077401B5570040A9
:10012600F1120026FF12006102009AD208D2068060
:1001360095120026FB120026FA120026F94A4B7089
:100146000679437A037BFF20022EE557602A7E005C
:100156008E827583001203B160060EEE655870F04C
:10016600C2D5EBC0E0EAC0E0E9C0E0EE1202B9D0C9
:10017600E0F9D0E0FAD0E0FB120382FF60AAEBC000
:10018600E0EAC0E0E9C0E0120061D0E02401F9D065
:10019600E03400FAD0E0FBE5580460DCD558D9809D
:1001A600877BFF7A0279B5D202809C79108002792A
:1001B60008C206C2088008D2D5790A8004790AC224
:1001C600D5E558047002F558E4FAFDFEFF12002644
:1001D600FC7B08200113120026FD7B1030000A125A
:1001E6000026FE120026FF7B20EC3382D592D550E6
:1001F60013C3E43000069FFFE49EFEE42001039D46
:10020600FDE49CFCE4CBF8C201EC700CCFCECDCC67
:10021600E824F8F870F38017C3EF33FFEE33FEEDF2
:1002260033FDEC33FCEB33FB994002FB0FD8E9EBD3
:10023600300105F8D0E0C448B201C0E00AEC4D4EEA
:100246004F78207B0070C2EAB5580040BCC0E0126F
:1002560002BBD0F0D0E0200104C4C0E0C4B201C0AB
:10026600F012004AD0F0D5F0EB02009A1204000119
:10027600375301B15801084C01044201B54F01BD85
:0F0286004401BD49011D4301C35501A74601A70E
:100295004501A747036350010C2D01102E01332B97
:1002A500011423013120034C2A00CC480000012B06
:1002B5003F3F3F00790AA2D5200314300509B91044
:1002C500020404B9080104A2D52006025001042045
:1002D50002689202B557005034C0E07F2030031900
:1002E5007F30A20272067205500F120312C202C2BB
:1002F50006C205C2087F30800F300503E9C0E01251
:100305000061300503D0E0F9D0E0B557CC300517D2
:100315007F30B9100C1200617F583004077F788058
:1003250003B908031200613002057F2D0200617FC9
:10033500202008F87F2B2006F322920280CF286E1A
:10034500756C6C2900D2011200263001F8C20178C3
:100355005730D50108F60200CC2D504349581200FC
:10036500262403B405004001E490035E9312005275
:0D037500743A120052D2037557040201B110
:1003B100BB010CE58229F582E5833AF583E0225001
:1003C10006E92582F8E622BBFE06E92582F8E2224B
:0D03D100E58229F582E5833AF583E4932265
:1003DE00BB010689828A83F0225002F722BBFE01FE
:0203EE00F322F8
:1003F000FAE6FB0808E6F925F0F618E6CA3AF6220E
:10040000D083D082F8E4937012740193700DA3A38B
:1004100093F8740193F5828883E47374029368609F
:06042000EFA3A3A380DF9F
:10054600EFB40A07740D120551740A309811A89970
:10055600B8130CC2983098FDA899C298B811F63015
:0705660099FDC299F59922ED
:00000001FF
