:03000000020800F3
:0C080000787FE4F6D8FD75812D020847D2
:030B9D00012B0029
:10088C007F041209677580FF120C617B557A007D1D
:10089C00597C007F23120C1E7D0B7C00E4FF120B95
:1008AC001A7F64120B5F300007120A418F2BC200B3
:1008BC00E51975F00A84FFE51975F00A84E5F0FD79
:1008CC007C00E51DC4540F750D00F50EE51D540F8D
:1008DC00750F00F510751100751210E52B75F00AE7
:1008EC0084751300F514E52B75F00A84E5F0751585
:0C08FC0000F5167B107A00120C3580AA63
:050CCA00007F0BDFFEBE
:010CCF002202
:10096700EF603224FB601314601914601F240370B6
:100977002AE5A0541F4480F5A022E5A0541F44A0F7
:10098700F5A022E5A0541F44C0F5A022E5A0541FFE
:0C09970044E0F5A022E5A074FFF5A022CA
:0C0BA000021A0000011C00011900C10035
:100C6100438E805389F0758ACD758CD4C28DD28C18
:050C7100D2A9D2AF2260
:03000B00020908DF
:10090800C0E0C0F0C083C082C0D075D000C000C0B5
:1009180001C002C003C004C005C006C007051BE52E
:100928001B7002051AB4E80DE51AB40308051C7516
:100938001A00751B00E51CB43C050519751C00124E
:100948000A74D200D007D006D005D004D003D00254
:0F095800D001D000D0D0D082D083D0F0D0E03208
:100C7600C0F9A4B0999282F880908880C6C0868E0A
:040C8600BF7F3FFFEE
:0D0BAC0008220000000000000000012100F0
:100B3E008F178D187F06120967AF177401A8070863
:100B4E008002C333D8FCF5807F07120967851880B1
:010B5E002274
:100C35008F228D238B24850E2585102685122785E9
:060C450014288516292287
:100A74007F071209677580FF74222521F8E6FF338A
:100A840095E0FE74762FF582740C3EF583E493FDB5
:0F0A9400AF21120B3E0521E521B40803E4F52143
:010AA3002230
:040BBA007F057E0035
:100BBE00EF1FAA0670011E4A600BE4FDEDC3940CF4
:050BCE0050EE0D80F760
:010BD30022FF
:020B7F00A907C4
:100B8100E4FBC294E9139294120BBAD294E9C31311
:0C0B9100F90BBB08ED7F057E00020BBED7
:100BD400E4FBC294ECC313FCD2943094034304802A
:090BE400120BBA0BBB08EBAF04C5
:010BED0022E5
:100ACE00C201D2947F0C7E00120BBEC2947F507E68
:100ADE0000120BBED2947F0A7E00120BBEA294921D
:060AEE0001120BBAA20187
:010AF40022DF
:1009D900120ACE7FCC120B7F7F44120B7F7F907E51
:1009E90001120BBE120ACE7FCC120B7F7FBE120BF7
:1009F9007F120BD4A907120BD4EFC454F0FFE9C43A
:040A0900540F4FFF38
:010A0D0022C6
:100C9E00E4FEC297EF1392A3EFC313FFD2970EBEDB
:020CAE0008F04C
:010CB0002221
:100C8A00C29300C29700D29300120C9EAF05120CB9
:040C9A009EC2932241
:1009A300E4FDC29300C29700D29300120C9EE4FFB1
:1009B300C297EDC313FD30A303430580D2970FBF46
:1009C30008EEC29300C293C29700D29700C2A3005D
:0509D300D2A300AF05F6
:0109D80022FC
:100C1E008D82AD077F84120C8AAD827F82120C8A80
:070C2E00AD037F80020C8A78
:100C4B007F851209A38F1E7F831209A38F1F7F81BC
:060C5B001209A38F1D2207
:0F0CB100D2A1D2A0120CCAC2A1120CCAC2A02298
:0A0CC000C2A1D2A0120CCAD2A122D8
:100BEE00300204C2A18002D2A1120CCAD2A0120CF1
:080BFE00CAC2A0D2A1020CCA78
:100C0600D2A1120CCAD2A0120CCA30A107C2A012DD
:080C16000CC0C322C2A0D322CE
:020AA4008F0BB6
:100AA600E4F50CE50B30E704D2A18002C2A1120CDA
:100AB600CAD2A0E50B25E0F50B120CCAC2A0050CA4
:070AC600E50CC3940840DCBD
:010ACD002206
:100AF500E4F50BD2A0120CCAE50A25E0F50A30A1EF
:100B050003430A01C2A0120CCA050BE50BC39408E6
:040B150040E1AF0A02
:010B190022B9
:020A0E008F2C2B
:100A1000120CB17F90120AA4120C06AF2C120AA479
:100A2000120C06120CC0120CB17F91120AA4120C07
:100A300006120AF58F2DC202120BEE120CC0AF2D5A
:010A40002293
:100B5F008F08120CB17F90120AA4120C067F40125C
:100B6F000AA4120C06AF08120AA4120C06020CC03B
:020A41008F081C
:100A4300120CB17FA0120AA4120C06AF08120AA45A
:100A5300120C06120CC0120CB17FA1120AA4120CC4
:100A630006120AF58F09C202120BEE120CC0AF096F
:010A73002260
:100B1A008F088C098D0A120CB17FA0120AA4120C3C
:100B2A0006AF08120AA4120C06AF0A120AA4120C83
:040B3A0006020CC0E3
:10080C0002088CE493A3F8E493A34003F68001F26E
:10081C0008DFF48029E493A3F85407240CC8C333ED
:10082C00C4540F4420C8834004F456800146F6DFBC
:10083C00E4800B0102040810204080900B9DE47EA4
:10084C00019360BCA3FF543F30E509541FFEE493B1
:10085C00A360010ECF54C025E060A840B8E493A378
:10086C00FAE493A3F8E493A3C8C582C8CAC583CAA3
:10087C00F0A3C8C582C8CAC583CADFE9DEE780BE5B
:010BB900003B
:00000001FF
