:030000000208AE45
:0C08AE00787FE4F6D8FD75810802080090
:0508CE001208D3D2A0C6
:0108D3002202
:0A08BA00D2A11208CEC2A10208D399
:0A08C400C2A11208CED2A10208D38F
:080839001208BA7FA01208901A
:10084100D2A01208D330A1047F0180027F00E50805
:10085100C394FA50047E0180027E00EE5F600405BD
:080861000880E2C2A00208D3E6
:0508D400D2A1D2A02218
:10089000C2A01208D3E4FEEF25E0FF92A11208CE19
:0E08A000C2A01208D30EBE08EED2A10208D3E9
:10086900C2A01208D3D2A11208D3E4FED2A0120862
:10087900D3A2A1E433FD6005EF25E04DFFC2A0122C
:0608890008D30EBE08E6D4
:01088F002246
:100800001208D41208397F031208901208417FFEA3
:100810001208901208411208C41208397F03120806
:10082000901208411208BA7FA112089012084112D2
:0908300008698F901208C480FED3
:00000001FF
