:03000000020800F3
:0C080000787FE4F6D8FD758125020847DA
:100991007F507EC3120A8775A0FEE4F5217F507E49
:1009A100C3120A87E5A025E0F5A043A0010521E5D2
:0B09B10021C3940840E775A0FE80DF22
:0A0A8700EF1F70011E144E70F722DD
:100A3700438E805389F0758ACD758CD4C28DD28C44
:050A4700D2A9D2AF228C
:03000B00020917D0
:10091700C0E0C0F0C083C082C0D075D000C000C0A6
:1009270001C002C003C004C005C006C007120A0404
:1009370012088CD007D006D005D004D003D002D03F
:0E09470001D000D0D0D082D083D0F0D0E032EA
:10095500EF603224FB601314601914601F240370C8
:100965002AE5A0541F4480F5A022E5A0541F44A009
:10097500F5A022E5A0541F44C0F5A022E5A0541F10
:0C09850044E0F5A022E5A074FFF5A022DC
:0209BC00A90789
:1009BE00E4FFFEE9FBC3EF9BEE94005015E4FCFD53
:1009CE000DBD00010CED647B4C70F50FBF00010EE8
:0209DE0080E1B6
:0109E00022F4
:100A4C00C0F9A4B0999282F880908880C6C0868E36
:040A5C00BF7F3FFF1A
:0D0A7400081800000000000000000117003D
:1009E1008F228C238D247F06120955AF227401A812
:1009F10007088002C333D8FCF5807F0712095585AB
:030A01002480222C
:100A21008F188D198B1A850E1B85101C85121D853B
:060A3100141E85161F22B1
:100A040074182517F8E6900A4C93FD7C00AF171272
:0C0A140009E10517E517B40803E4F51725
:010A200022B3
:050A8100C10001250089
:10088C00E4FDF9200073E5B054C0440FF5B0C2C2CA
:10089C00C2C4E4FC74017E00A804088005C333CEF6
:1008AC0033CED8F9FFABB0EF5B6F7001EE6003ECA9
:1008BC0004F90CBC04DEE5B054C04430F5B0D2C22F
:1008CC00D2C4E4FC74107E00A804088005C333CEA7
:1008DC0033CED8F9FFABB0EF5B6F7001EE6005C3A0
:1008EC0074049CFD0CBC02DCA2C2B3A0C4500A2050
:1008FC00C2027D0220C4027D01ED7003C20022E918
:0A090C001425E025E02DF525D200AA
:0109160022BE
:100A60007F0A1209BCA2B582B482C282C450F67F4A
:040A70000A0209BCB1
:10080C00020991E493A3F8E493A34003F68001F268
:10081C0008DFF48029E493A3F85407240CC8C333ED
:10082C00C4540F4420C8834004F456800146F6DFBC
:10083C00E4800B0102040810204080900A74E47ECE
:10084C00019360BCA3FF543F30E509541FFEE493B1
:10085C00A360010ECF54C025E060A840B8E493A378
:10086C00FAE493A3F8E493A3C8C582C8CAC583CAA3
:10087C00F0A3C8C582C8CAC583CADFE9DEE780BE5B
:010A8600006F
:00000001FF
