:030000000208CF24
:0C08CF00787FE4F6D8FD7581070208DB95
:0A089400FD7F041208EA7F607EEA8F
:10089E00EF1FAC0670011E4C70F6EF1FAC06700118
:0508AE001E4C70F62253
:10086100EF24FB601314601914601F24037023E547
:10087100A0541F4480F5A022E5A0541F44A0F5A078
:1008810022E5A0541F44C0F5A022E5A0541F44E076
:03089100F5A022AD
:0608EA001208618D80225E
:0708E300E4FD7F050208EAB5
:10080000E4FBFAE41208947DFF1208950BBB00018B
:100810000AEB64034A70EC7A007B01AF0374FFA813
:1008200007088002C333D8FC1208940BBB00010AEE
:10083000EB64094A70E51208B37F041208617A007C
:100840007B01AF0374FFA807088002C333D8FCF410
:100850001208940BBB00010AEB64094A70E4020819
:01086000C1D6
:0E08B3007D107F05120897E4FD7F050208EA1C
:0E08C1007D407F05120897E4FD7F050208EADE
:0808DB001208E312080080FB83
:00000001FF
