:03000000020800F3
:0C080000787FE4F6D8FD75810A020847F5
:1009AD00C0F9A4B0999282F880908880C6C0868ED6
:0209BD00BF7FFA
:0909DA00010800010A00010900F6
:1008D500EF24FB601314601914601F24037023E5D3
:1008E500A0541F4480F5A022E5A0541F44A0F5A004
:1008F50022E5A0541F44C0F5A022E5A0541F44E002
:03090500F5A02238
:10098F00AE077F061208D5AF057401A807088002CD
:0E099F00C333D8FCF5807F071208D58E802266
:1009650075F00A8493FF1D12098F7FF47E01120929
:0F097500849009BDE41D93FF12098F7FF47E016A
:0B098400EF1FAC0670011E4C70F62245
:10088C00E50975F00A84E5F09009AD7D0712097B46
:10089C00E509120965E50A75F00A84E5F09009ADE1
:1008AC0012097AE50A120965E50875F00A84E5F083
:1008BC009009AD12097AE50875F00A8493FF1D12B0
:0908CC00098F7FF47E010209840A
:1009BF00758901758C3C758AAFD2A9D2AFD28C22C2
:03000B00020938AF
:10093800C0E0C0D0758C3C758AAF0509E509B414D0
:1009480005050A750900E50AB43C050508750A009D
:0D095800E508B46303750800D0D0D0E0328C
:0709E400AE071FEE70FA22BE
:1009080020B3127F641209E420B30AB28C20B30525
:1009180012088C80F820B2177F641209E420B20F05
:10092800E4F509F50AF50820B20512088C80F822CA
:0B09CF001209BF12088C12090880F802
:10080C000209CFE493A3F8E493A34003F68001F22A
:10081C0008DFF48029E493A3F85407240CC8C333ED
:10082C00C4540F4420C8834004F456800146F6DFBC
:10083C00E4800B01020408102040809009DAE47E69
:10084C00019360BCA3FF543F30E509541FFEE493B1
:10085C00A360010ECF54C025E060A840B8E493A378
:10086C00FAE493A3F8E493A3C8C582C8CAC583CAA3
:10087C00F0A3C8C582C8CAC583CADFE9DEE780BE5B
:0109E3000013
:00000001FF
