:03000000020800F3
:0C080000787FE4F6D8FD75810B020847F4
:100902005468652053797374656D2069732052753C
:100912006E6E696E672E2E2E0D0A0057656C636F20
:0F0922006D6520746F20436F706C65210D0A00A6
:0309BA00010B002E
:1008C900EF603224FB601314601914601F24037055
:1008D90027E5A0541F4480F5A022E5A0541F44A099
:1008E900F5A022E5A0541F44C0F5A022E5A0541F9D
:0908F90044E0F5A02253A01F22E7
:100999007F051208C9E4F5801F1208C97580FF2276
:10096F00758920758DFD758BFDD28E759850E4F5C8
:06097F008ED2ACD2AF22C3
:030023000209A926
:0909A90030980585990BC29832C3
:0809B2008F993099FDC29922D2
:100931008B088A09890AAB08AA09A90A1209566013
:1009410013050AE50A7002050914F9120956FF1286
:0509510009B280E22262
:10088C00E50B603854F02450601424F060222420CE
:10089C00702AE50BF444F0FFE580440F800DE50B66
:1008AC00F4C454F0440FFFE58044F05FF5808009F8
:0D08BC007BFF7A097902120931E4F50B2265
:1009850012099912096F7BFF7A09791D1209311233
:04099500088C80FB4F
:10080C00020985E493A3F8E493A34003F68001F274
:10081C0008DFF48029E493A3F85407240CC8C333ED
:10082C00C4540F4420C8834004F456800146F6DFBC
:10083C00E4800B01020408102040809009BAE47E89
:10084C00019360BCA3FF543F30E509541FFEE493B1
:10085C00A360010ECF54C025E060A840B8E493A378
:10086C00FAE493A3F8E493A3C8C582C8CAC583CAA3
:10087C00F0A3C8C582C8CAC583CADFE9DEE780BE5B
:0109BD000039
:10095600BB010689828A83E0225002E722BBFE029F
:09096600E32289828A83E49322D2
:00000001FF
