:03000000020950A2
:0C095000787FE4F6D8FD75810802096785
:10093D00C0F9A4B0999282F880908880C6C0868E46
:03094D00BF7F3F2A
:0B095C00EF1FAC0670011E4C70F6226D
:1008F200EF24FB601314601914601F24037023E5B6
:10090200A0541F4480F5A022E5A0541F44A0F5A0E6
:1009120022E5A0541F44C0F5A022E5A0541F44E0E4
:03092200F5A0221B
:07092500E50890093D93FF76
:10092C00AE077F061208F27580010F1208F28E8056
:01093C002298
:10080000C2B0D2B3D2B2D2B1D2B4D2B5D2C2D2C4B3
:1008100020C405E4F508801F20C20830C2FD750819
:1008200001801420B50830B5FD750802800920B498
:100830000930B4FD750803120925C2B1D2B3D2B292
:10084000D2B0D2B4D2B5D2C2D2C420C40830C4FD12
:10085000750804801F20C20830C2FD750805801489
:1008600020B50830B5FD750806800920B40930B4FC
:10087000FD750807120925C2B2D2B3D2B0D2B1D2E7
:10088000B4D2B5D2C2D2C420C40830C4FD750808A1
:10089000801F20C20830C2FD750809801420B508E9
:1008A00030B5FD75080A800920B40930B4FD75081B
:1008B0000B120925C2B3D2B1D2B2D2B0D2B4D2B5E2
:1008C000D2C2D2C420C40830C4FD75080C801F20D9
:1008D000C20830C2FD75080D801420B50830B5FD82
:1008E00075080E800920B40930B4FD75080F12098F
:0208F0002522BF
:0509670012080080FBF6
:00000001FF
