:03000000020800F3
:0C080000787FE4F6D8FD758108020847F7
:03090400010800E7
:10088C00EF24FB601314601914601F24037023E51C
:10089C00A0541F4480F5A022E5A0541F44A0F5A04D
:1008AC0022E5A0541F44C0F5A022E5A0541F44E04B
:0308BC00F5A02282
:1008EA00758901758C3C758CAFD2A9D2AFD28C2296
:03000B000208BF29
:1008BF00C0E0C0F0C0D0758C3C758CAF0508E50862
:1008CF0075F00A84E5F07002B280E508B46405B2F1
:0B08DF0087750800D0D0D0F0D0E032C8
:0A08FA001208EA7F0412088C80F94E
:10080C000208FAE493A3F8E493A34003F68001F200
:10081C0008DFF48029E493A3F85407240CC8C333ED
:10082C00C4540F4420C8834004F456800146F6DFBC
:10083C00E4800B0102040810204080900904E47E3F
:10084C00019360BCA3FF543F30E509541FFEE493B1
:10085C00A360010ECF54C025E060A840B8E493A378
:10086C00FAE493A3F8E493A3C8C582C8CAC583CAA3
:10087C00F0A3C8C582C8CAC583CADFE9DEE780BE5B
:0109070000EF
:00000001FF
