:0300000002089063
:0C089000787FE4F6D8FD7581080208D7D7
:030960000108008B
:10091C00EF24FB601314601914601F24037023E58B
:10092C00A0541F4480F5A022E5A0541F44A0F5A0BC
:10093C0022E5A0541F44C0F5A022E5A0541F44E0BA
:03094C00F5A022F1
:07095900AE071FEE70FA2249
:1008000020B0207F6412095920B018E5087007C293
:1008100080750801800AE508B40105D280E4F50876
:1008200030B0FD20B1207F6412095920B118E508CD
:100830007007C281750802800AE508B40205D281FA
:10084000E4F50830B1FD20B2227F6412095920B2CC
:100850001AE508B40109C28230B2FDD282800CE5EB
:1008600008B40207C28430B2FDD28420B3217F6471
:1008700012095920B319E508B40108C28330B3FD49
:10088000D28322E508B40207C28530B3FDD28522A7
:0A094F007F0412091C12080080FB4F
:10089C0002094FE493A3F8E493A34003F68001F21A
:1008AC0008DFF48029E493A3F85407240CC8C3335D
:1008BC00C4540F4420C8834004F456800146F6DF2C
:1008CC00E4800B0102040810204080900960E47E53
:1008DC00019360BCA3FF543F30E509541FFEE49321
:1008EC00A360010ECF54C025E060A840B8E493A3E8
:1008FC00FAE493A3F8E493A3C8C582C8CAC583CA13
:10090C00F0A3C8C582C8CAC583CADFE9DEE780BECA
:010963000093
:00000001FF
