:03000000020800F3
:0C080000787FE4F6D8FD75810A020847F5
:09092700010A00010800010900A9
:0E08FE00EF24FC7008E5A0541F4480F5A022F2
:0E090C00758901758C9B758AFFD2A9D2AF2226
:03000B000208CD1B
:1008CD00C0E0C0D0758C9B758AFF050AE50AD395EB
:1008DD00085004C2808015E50AC394645004D28088
:1008ED00800AE50AB46405C280750A00D0D0D0E054
:0108FD0032C8
:07093100AE071FEE70FA2271
:10088C0020B03D7F6412093120B035E509146016A3
:10089C0014601B14602024037023C280D28C750852
:1008AC000A7509018017750832750902800F7508E1
:1008BC005A7509038007D280C28CE4F50930B0FD6B
:0108CC002209
:0D091A007F041208FE12090C12088C80FBED
:10080C0002091AE493A3F8E493A34003F68001F2DF
:10081C0008DFF48029E493A3F85407240CC8C333ED
:10082C00C4540F4420C8834004F456800146F6DFBC
:10083C00E4800B0102040810204080900927E47E1C
:10084C00019360BCA3FF543F30E509541FFEE493B1
:10085C00A360010ECF54C025E060A840B8E493A378
:10086C00FAE493A3F8E493A3C8C582C8CAC583CAA3
:10087C00F0A3C8C582C8CAC583CADFE9DEE780BE5B
:0109300000C6
:00000001FF
