:03000000020800F3
:0C080000787FE4F6D8FD75810D020847F2
:100AEF00C0F9A4B0999282F880908880C6C0868E93
:030AFF00BF7F3F77
:100ADC00010CFF010800010B00010A0001090001D3
:020AEC000D00FB
:0E0B220000007F057E347DC3DDFEDEFCDFFAC1
:010B300022A2
:0709CF005FF50CF580E4FF69
:1009D600EF603224FB601314601914601F24037047
:1009E60027E5A0541F4480F5A022E5A0541F44A08B
:1009F600F5A022E5A0541F44C0F5A022E5A0541F8F
:090A060044E0F5A02253A01F22D8
:090B31007F051209D6E4F58022CB
:100A0F007F041209D6E4FC74FEA804088002C333E5
:100A1F00D8FCF50CF580120B220CBC09EAE4FC742F
:100A2F00FEA804088002C333D8FCF4F50CF580123D
:0B0A3F000B220CBC09E9E4FF0209D601
:10098C007F071209D6E4F580FC7F061209D67401A4
:10099C00A804088002C333D8FCF580120B220CBCCF
:1009AC0009E7E4FC7F061209D67401A8040880024A
:1009BC00C333D8FCF4F580120B220CBC09E6E4FF1F
:0309CC000209D647
:100B0200758921758D3C758BAFD2A9D2AFD28C225B
:03000B00020A4A9C
:100A4A00C0E0C0D0758D3C758BAF0508E508B414BD
:100A5A0005050B750800E50BB43C05050A750B0086
:0F0A6A00E50AB43C050509750A00D0D0D0E0328A
:0E0AC70075F00A84900AEF93FD120A797FF40D
:070AD500AE071FEE70FA22CC
:100A7900AE077F061209D6AF067401A807088002DF
:0E0A8900C333D8FCF5807F071209D68D80227A
:10088C00E50975F00A84900AEF93FDE4FF120AD093
:10089C00E50975F00A84E5F093FD7F01120AD0900A
:1008AC000AFFE493FD7F02120AD0E50A7F03120AC5
:1008BC00C7E50A75F00A84E5F093FD7F04120AD0AF
:1008CC00900AFFE493FD7F05120AD0E50B7F061218
:1008DC000AC7E50B75F00A84E5F093FD7F07120A51
:0608EC00797FF4020AD539
:1009450020B22012088C20B21A20B20512088C8021
:10095500F87F041209D6E50CF444BFFFE50C4440CA
:100965001209CF20B32012088C20B31A20B3051228
:10097500088C80F87F041209D6E50CF4447FFFE566
:070985000C44801209CF228F
:100AB100758921758DFD758BFDD28E759850E4F584
:060AC1008ED2ACD2AF2280
:03002300020B3A93
:090B3A0030980585990DC298322E
:080B120075F00A84E5F04FFFC5
:080B1A008F993099FDC2992268
:1008F200E50D604E54F024506018241070447F04BB
:100902001209D6E50DF444F0FFE50C440F1209CFAD
:10091200802DE50975F00A84C454F0FFE509120B35
:1009220012E50A75F00A84C454F0FFE50A120B12AC
:10093200E50B75F00A84C454F0FFE50B120B12E4C8
:03094200F50D228E
:100A9700120B31120A0F12098C120B02120AB11231
:0A0AA700088C1209451208F280F5D0
:10080C00020A97E493A3F8E493A34003F68001F261
:10081C0008DFF48029E493A3F85407240CC8C333ED
:10082C00C4540F4420C8834004F456800146F6DFBC
:10083C00E4800B0102040810204080900ADCE47E66
:10084C00019360BCA3FF543F30E509541FFEE493B1
:10085C00A360010ECF54C025E060A840B8E493A378
:10086C00FAE493A3F8E493A3C8C582C8CAC583CAA3
:10087C00F0A3C8C582C8CAC583CADFE9DEE780BE5B
:010AEE000007
:00000001FF
