:03000000020800F3
:0C080000787FE4F6D8FD758129020847D6
:1008F500120AB430000712098F8F08C200E51B7574
:10090500F00A84FFE51B75F00A84E5F0FD7C00E53F
:100915001E75F00A84750E00F50FE51E75F00A8444
:10092500E5F0751000F511751200751310E50875E1
:10093500F00A84751400F515E50875F00A84E5F0EC
:0E094500751600F5177B107A00120A9E80A529
:10095300EF603224FB601314601914601F240370CA
:100963002AE5A0541F4480F5A022E590541F44A01B
:10097300F5A022E5A0541F44D0F5A022E590541F12
:0C09830044E0F5A022E5A074FFF5A022DE
:100AC900C0F9A4B0999282F880908880C6C0868EB9
:040AD900BF7F3FFF9D
:0D0A4D000822000000000000000001210050
:100A0E008F188D197F06120953AF187401A80708A5
:100A1E008002C333D8FCF5807F07120953851980F5
:010A2E0022A5
:100A9E008F228D238B24850F25851126851327857F
:060AAE001528851729221E
:1009EB007F071209537580FF74222521F8E6900AC0
:1009FB00C993FDAF21120A0E0521E521B40803E4CA
:020A0B00F521D3
:010A0D0022C6
:0F0A5A00021C0000011E00011B00011A00C10058
:100AB400438E805389F0758ACD758CD4C28DD28CC7
:050AC400D2A9D2AF220F
:03000B0002088C5C
:10088C00C0E0C0F0C083C082C0D075D000C000C032
:10089C0001C002C003C004C005C006C007051DE5A9
:1008AC001D7002051CB4E80DE51CB40308051E758B
:1008BC001C00751D00E51EB43C05051B751E00E5EE
:1008CC001BB43C05051A751B001209EBD200D007AE
:1008DC00D006D005D004D003D002D001D000D0D0A7
:0908EC00D082D083D0F0D0E032BC
:040A6A007F057E0086
:100A6E00EF1FAA0670011E4A600BE4FDEDC3940C45
:050A7E0050EE0D80F7B1
:010A83002250
:020A2F00A90715
:100A3100E4FBC294E9139294120A6AD294E9C313B3
:0C0A4100F90BBB08ED7F057E00020A6E79
:100A8400E4FBC294ECC313FCD2943094034304807B
:090A9400120A6A0BBB08EBAF0467
:010A9D002236
:1009C400C201D2947F0C7E00120A6EC2947F507EC4
:1009D40000120A6ED2947F0A7E00120A6EA29492CA
:0609E40001120A6AA201E3
:0109EA0022EA
:10098F001209C47FCC120A2F7F44120A2F7F907E48
:10099F0001120A6E1209C47FCC120A2F7FBE120AEF
:1009AF002F120A84A907120A84EFC454F0FFE9C476
:0409BF00540F420788
:0109C3002211
:10080C000208F5E493A3F8E493A34003F68001F205
:10081C0008DFF48029E493A3F85407240CC8C333ED
:10082C00C4540F4420C8834004F456800146F6DFBC
:10083C00E4800B0102040810204080900A4DE47EF5
:10084C00019360BCA3FF543F30E509541FFEE493B1
:10085C00A360010ECF54C025E060A840B8E493A378
:10086C00FAE493A3F8E493A3C8C582C8CAC583CAA3
:10087C00F0A3C8C582C8CAC583CADFE9DEE780BE5B
:010A6900008C
:00000001FF
