:0300000002088E65
:0C088E00787FE4F6D8FD75810D0208D5D6
:0B09E5001209F012097612094D80F88B
:1009BE00EF1FAC0670011E4C70F6EF1FAC067001F7
:0509CE001E4C70F62232
:10091A00EF24FB601314601914601F24037023E58D
:10092A00A0541F4480F5A022E5A0541F44A0F5A0BE
:10093A0022E5A0541F44C0F5A022E5A0541F44E0BC
:03094A00F5A022F3
:1009D300C0F9A4B0999282F880908880C6C0868EB0
:0209E300BF7FD4
:10099B008F088C098D0A7F0612091AAF0A7401A8F9
:1009AB0007088002C333D8FCF5807F0712091A852C
:0309BB000880228F
:10080000E4F50BE4F50CAF0CEF3395E0FE74D32F59
:10081000F58274093EF583E493FFE50BFD3395E023
:10082000FC12099B7F607EEA1209BE050CC3E50C31
:100830006480948A40D0050BC3E50B6480948840A3
:10084000C2E4F50C7F0612091A7580FF7F071209B2
:100850001AAF0CEF3395E0FE74D32FF58274093E86
:10086000F583E493F5807F007E461209BE7F007E0B
:10087000461209BE7F007E461209BE7F007E4612E8
:0D08800009BE050CC3E50C6480949040B7E0
:01088D002248
:0309FB00010D00EB
:0709F000D288D2A8D2AF2289
:030003000209F7F8
:0409F700750D013247
:10094D00E50DB40120C2877F007EE11209BE7F0054
:10095D007EE11209BE7F007EE11209BE7F007EE1BD
:09096D001209BED287E4F50D2247
:100976007F0412091AC2807F007EE11209BE7F0041
:100986007EE11209BED2807F007EE11209BE7F00A1
:050996007EE10209BE34
:10089A000209E5E493A3F8E493A34003F68001F286
:1008AA0008DFF48029E493A3F85407240CC8C3335F
:1008BA00C4540F4420C8834004F456800146F6DF2E
:1008CA00E4800B01020408102040809009FBE47EBA
:1008DA00019360BCA3FF543F30E509541FFEE49323
:1008EA00A360010ECF54C025E060A840B8E493A3EA
:1008FA00FAE493A3F8E493A3C8C582C8CAC583CA15
:10090A00F0A3C8C582C8CAC583CADFE9DEE780BECC
:0109FE0000F8
:00000001FF
