:030000000208DF14
:0C08DF00787FE4F6D8FD7581070208EB75
:1008CD00C0F9A4B0999282F880908880C6C0868EB7
:0208DD00BF7FDB
:0B088F007F007E4612089A7F007E4624
:10089A00EF1FAC0670011E4C70F6EF1FAC0670011C
:0508AA001E4C70F62257
:10085C00EF24FB601314601914601F24037023E54C
:10086C00A0541F4480F5A022E5A0541F44A0F5A07D
:10087C0022E5A0541F44C0F5A022E5A0541F44E07B
:03088C00F5A022B2
:1008AF00AE077F0612085CAF057401A80708800227
:0E08BF00C333D8FCF5807F0712085C8E8022C0
:10080000E4FAE4FBEBFF3395E0FE74CD2FF5827440
:10081000083EF583E493FFEAFD3395E0FC1208AF50
:100820007F607EEA12089A0BBB0AD90ABA08D3E4A1
:10083000FB7F0612085C7580FF0F12085CEBFF332C
:1008400095E0FE74CD2FF58274083EF583E493F5B0
:0B0850008012088F12088F0BBB10D61F
:01085B00227A
:0508EB0012080080FB73
:00000001FF
